{
  "_format": "hh-sol-artifact-1",
  "contractName": "ICO",
  "sourceName": "contracts/ICOToken.sol",
  "abi": [
    {
      "inputs": [
        {
          "internalType": "contract ICOToken",
          "name": "_token",
          "type": "address"
        }
      ],
      "stateMutability": "nonpayable",
      "type": "constructor"
    },
    {
      "anonymous": false,
      "inputs": [
        {
          "indexed": true,
          "internalType": "address",
          "name": "investor",
          "type": "address"
        },
        {
          "indexed": false,
          "internalType": "uint256",
          "name": "amount",
          "type": "uint256"
        }
      ],
      "name": "Claim",
      "type": "event"
    },
    {
      "anonymous": false,
      "inputs": [
        {
          "indexed": true,
          "internalType": "address",
          "name": "depositor",
          "type": "address"
        },
        {
          "indexed": false,
          "internalType": "uint256",
          "name": "amount",
          "type": "uint256"
        }
      ],
      "name": "Deposit",
      "type": "event"
    },
    {
      "anonymous": false,
      "inputs": [
        {
          "indexed": true,
          "internalType": "address",
          "name": "previousOwner",
          "type": "address"
        },
        {
          "indexed": true,
          "internalType": "address",
          "name": "newOwner",
          "type": "address"
        }
      ],
      "name": "OwnershipTransferred",
      "type": "event"
    },
    {
      "anonymous": false,
      "inputs": [
        {
          "indexed": true,
          "internalType": "address",
          "name": "investor",
          "type": "address"
        },
        {
          "indexed": false,
          "internalType": "uint256",
          "name": "amount",
          "type": "uint256"
        }
      ],
      "name": "Received",
      "type": "event"
    },
    {
      "anonymous": false,
      "inputs": [
        {
          "indexed": true,
          "internalType": "address",
          "name": "depositor",
          "type": "address"
        },
        {
          "indexed": false,
          "internalType": "uint256",
          "name": "amount",
          "type": "uint256"
        }
      ],
      "name": "Withdraw",
      "type": "event"
    },
    {
      "stateMutability": "payable",
      "type": "fallback"
    },
    {
      "inputs": [],
      "name": "claim",
      "outputs": [],
      "stateMutability": "nonpayable",
      "type": "function"
    },
    {
      "inputs": [],
      "name": "deposit",
      "outputs": [],
      "stateMutability": "payable",
      "type": "function"
    },
    {
      "inputs": [],
      "name": "depositedAmount",
      "outputs": [
        {
          "internalType": "uint256",
          "name": "",
          "type": "uint256"
        }
      ],
      "stateMutability": "view",
      "type": "function"
    },
    {
      "inputs": [
        {
          "internalType": "address",
          "name": "",
          "type": "address"
        }
      ],
      "name": "deposits",
      "outputs": [
        {
          "internalType": "uint256",
          "name": "",
          "type": "uint256"
        }
      ],
      "stateMutability": "view",
      "type": "function"
    },
    {
      "inputs": [],
      "name": "endTime",
      "outputs": [
        {
          "internalType": "uint256",
          "name": "",
          "type": "uint256"
        }
      ],
      "stateMutability": "view",
      "type": "function"
    },
    {
      "inputs": [],
      "name": "hardCap",
      "outputs": [
        {
          "internalType": "uint256",
          "name": "",
          "type": "uint256"
        }
      ],
      "stateMutability": "view",
      "type": "function"
    },
    {
      "inputs": [],
      "name": "isICOActive",
      "outputs": [
        {
          "internalType": "bool",
          "name": "",
          "type": "bool"
        }
      ],
      "stateMutability": "view",
      "type": "function"
    },
    {
      "inputs": [],
      "name": "maxPurchase",
      "outputs": [
        {
          "internalType": "uint256",
          "name": "",
          "type": "uint256"
        }
      ],
      "stateMutability": "view",
      "type": "function"
    },
    {
      "inputs": [],
      "name": "minPurchase",
      "outputs": [
        {
          "internalType": "uint256",
          "name": "",
          "type": "uint256"
        }
      ],
      "stateMutability": "view",
      "type": "function"
    },
    {
      "inputs": [],
      "name": "owner",
      "outputs": [
        {
          "internalType": "address",
          "name": "",
          "type": "address"
        }
      ],
      "stateMutability": "view",
      "type": "function"
    },
    {
      "inputs": [],
      "name": "rate",
      "outputs": [
        {
          "internalType": "uint256",
          "name": "",
          "type": "uint256"
        }
      ],
      "stateMutability": "view",
      "type": "function"
    },
    {
      "inputs": [],
      "name": "renounceOwnership",
      "outputs": [],
      "stateMutability": "nonpayable",
      "type": "function"
    },
    {
      "inputs": [],
      "name": "softCap",
      "outputs": [
        {
          "internalType": "uint256",
          "name": "",
          "type": "uint256"
        }
      ],
      "stateMutability": "view",
      "type": "function"
    },
    {
      "inputs": [],
      "name": "startTime",
      "outputs": [
        {
          "internalType": "uint256",
          "name": "",
          "type": "uint256"
        }
      ],
      "stateMutability": "view",
      "type": "function"
    },
    {
      "inputs": [],
      "name": "token",
      "outputs": [
        {
          "internalType": "contract ICOToken",
          "name": "",
          "type": "address"
        }
      ],
      "stateMutability": "view",
      "type": "function"
    },
    {
      "inputs": [
        {
          "internalType": "address",
          "name": "newOwner",
          "type": "address"
        }
      ],
      "name": "transferOwnership",
      "outputs": [],
      "stateMutability": "nonpayable",
      "type": "function"
    },
    {
      "inputs": [],
      "name": "withdraw",
      "outputs": [],
      "stateMutability": "nonpayable",
      "type": "function"
    },
    {
      "stateMutability": "payable",
      "type": "receive"
    }
  ],
  "bytecode": "0x608060405267016345785d8a0000600355670de0b6b3a76400006004556103e86005556000600655662386f26fc1000060075566b1a2bc2ec50000600855636094ce006009556367279e00600a556000600b60006101000a81548160ff0219169083151502179055503480156200007557600080fd5b50604051620017c2380380620017c283398181016040528101906200009b91906200024d565b620000bb620000af6200010360201b60201c565b6200010b60201b60201c565b80600160006101000a81548173ffffffffffffffffffffffffffffffffffffffff021916908373ffffffffffffffffffffffffffffffffffffffff160217905550506200027f565b600033905090565b60008060009054906101000a900473ffffffffffffffffffffffffffffffffffffffff169050816000806101000a81548173ffffffffffffffffffffffffffffffffffffffff021916908373ffffffffffffffffffffffffffffffffffffffff1602179055508173ffffffffffffffffffffffffffffffffffffffff168173ffffffffffffffffffffffffffffffffffffffff167f8be0079c531659141344cd1fd0a4f28419497f9722a3daafe3b4186f6b6457e060405160405180910390a35050565b600080fd5b600073ffffffffffffffffffffffffffffffffffffffff82169050919050565b60006200020182620001d4565b9050919050565b60006200021582620001f4565b9050919050565b620002278162000208565b81146200023357600080fd5b50565b60008151905062000247816200021c565b92915050565b600060208284031215620002665762000265620001cf565b5b6000620002768482850162000236565b91505092915050565b611533806200028f6000396000f3fe6080604052600436106101025760003560e01c80638da5cb5b11610095578063f2fde38b11610064578063f2fde38b146102c2578063f6933c7d146102eb578063fb86a40414610316578063fc0c546a14610341578063fc7e286d1461036c57610111565b80638da5cb5b14610237578063906a26e014610262578063977b055b1461028d578063d0e30db0146102b857610111565b80633ccfd60b116100d15780633ccfd60b146101c75780634e71d92d146101de578063715018a6146101f557806378e979251461020c57610111565b80631d01364c1461011b5780632c4e722e146101465780633197cbb61461017157806333b5b62e1461019c57610111565b366101115761010f6103a9565b005b6101196103a9565b005b34801561012757600080fd5b506101306105c0565b60405161013d9190610d61565b60405180910390f35b34801561015257600080fd5b5061015b6105c6565b6040516101689190610d61565b60405180910390f35b34801561017d57600080fd5b506101866105cc565b6040516101939190610d61565b60405180910390f35b3480156101a857600080fd5b506101b16105d2565b6040516101be9190610d61565b60405180910390f35b3480156101d357600080fd5b506101dc6105d8565b005b3480156101ea57600080fd5b506101f36107c2565b005b34801561020157600080fd5b5061020a610a13565b005b34801561021857600080fd5b50610221610a27565b60405161022e9190610d61565b60405180910390f35b34801561024357600080fd5b5061024c610a2d565b6040516102599190610dbd565b60405180910390f35b34801561026e57600080fd5b50610277610a56565b6040516102849190610d61565b60405180910390f35b34801561029957600080fd5b506102a2610a5c565b6040516102af9190610d61565b60405180910390f35b6102c06103a9565b005b3480156102ce57600080fd5b506102e960048036038101906102e49190610e09565b610a62565b005b3480156102f757600080fd5b50610300610ae5565b60405161030d9190610e51565b60405180910390f35b34801561032257600080fd5b5061032b610af8565b6040516103389190610d61565b60405180910390f35b34801561034d57600080fd5b50610356610afe565b6040516103639190610ecb565b60405180910390f35b34801561037857600080fd5b50610393600480360381019061038e9190610e09565b610b24565b6040516103a09190610d61565b60405180910390f35b6103e76040518060400160405280600781526020017f4465706f73697400000000000000000000000000000000000000000000000000815250610b3c565b60075434101561042c576040517f08c379a000000000000000000000000000000000000000000000000000000000815260040161042390610f69565b60405180910390fd5b600854341115610471576040517f08c379a000000000000000000000000000000000000000000000000000000000815260040161046890610ffb565b60405180910390fd5b60045434600654610482919061104a565b11156104c3576040517f08c379a00000000000000000000000000000000000000000000000000000000081526004016104ba906110ca565b60405180910390fd5b6105016040518060400160405280600f81526020017f436f6e6669726d204465706f7369740000000000000000000000000000000000815250610b3c565b3460066000828254610513919061104a565b9250508190555034600260003373ffffffffffffffffffffffffffffffffffffffff1673ffffffffffffffffffffffffffffffffffffffff1681526020019081526020016000206000828254610569919061104a565b925050819055503373ffffffffffffffffffffffffffffffffffffffff167fe1fffcc4923d04b559f4d29a8bfc6cda04eb5b0d3c460751c2402c5c5cc9109c346040516105b69190610d61565b60405180910390a2565b60065481565b60055481565b600a5481565b60075481565b600354600654111561061f576040517f08c379a000000000000000000000000000000000000000000000000000000000815260040161061690611136565b60405180910390fd5b6000600260003373ffffffffffffffffffffffffffffffffffffffff1673ffffffffffffffffffffffffffffffffffffffff16815260200190815260200160002054116106a1576040517f08c379a0000000000000000000000000000000000000000000000000000000008152600401610698906111a2565b60405180910390fd5b6000600260003373ffffffffffffffffffffffffffffffffffffffff1673ffffffffffffffffffffffffffffffffffffffff1681526020019081526020016000205490506000600260003373ffffffffffffffffffffffffffffffffffffffff1673ffffffffffffffffffffffffffffffffffffffff168152602001908152602001600020819055503373ffffffffffffffffffffffffffffffffffffffff166108fc829081150290604051600060405180830381858888f19350505050158015610770573d6000803e3d6000fd5b503373ffffffffffffffffffffffffffffffffffffffff167f884edad9ce6fa2440d8a54cc123490eb96d2768479d49ff9c7366125a9424364826040516107b79190610d61565b60405180910390a250565b6003546006541015610809576040517f08c379a00000000000000000000000000000000000000000000000000000000081526004016108009061120e565b60405180910390fd5b6000600260003373ffffffffffffffffffffffffffffffffffffffff1673ffffffffffffffffffffffffffffffffffffffff168152602001908152602001600020541161088b576040517f08c379a00000000000000000000000000000000000000000000000000000000081526004016108829061127a565b60405180910390fd5b6000600554600260003373ffffffffffffffffffffffffffffffffffffffff1673ffffffffffffffffffffffffffffffffffffffff168152602001908152602001600020546108da919061129a565b90506000600260003373ffffffffffffffffffffffffffffffffffffffff1673ffffffffffffffffffffffffffffffffffffffff16815260200190815260200160002081905550600160009054906101000a900473ffffffffffffffffffffffffffffffffffffffff1673ffffffffffffffffffffffffffffffffffffffff1663a9059cbb33836040518363ffffffff1660e01b815260040161097e9291906112dc565b6020604051808303816000875af115801561099d573d6000803e3d6000fd5b505050506040513d601f19601f820116820180604052508101906109c19190611331565b503373ffffffffffffffffffffffffffffffffffffffff167f47cee97cb7acd717b3c0aa1435d004cd5b3c8c57d70dbceb4e4458bbd60e39d482604051610a089190610d61565b60405180910390a250565b610a1b610bd5565b610a256000610c53565b565b60095481565b60008060009054906101000a900473ffffffffffffffffffffffffffffffffffffffff16905090565b60035481565b60085481565b610a6a610bd5565b600073ffffffffffffffffffffffffffffffffffffffff168173ffffffffffffffffffffffffffffffffffffffff1603610ad9576040517f08c379a0000000000000000000000000000000000000000000000000000000008152600401610ad0906113d0565b60405180910390fd5b610ae281610c53565b50565b600b60009054906101000a900460ff1681565b60045481565b600160009054906101000a900473ffffffffffffffffffffffffffffffffffffffff1681565b60026020528060005260406000206000915090505481565b610bd281604051602401610b50919061146f565b6040516020818303038152906040527f41304fac000000000000000000000000000000000000000000000000000000007bffffffffffffffffffffffffffffffffffffffffffffffffffffffff19166020820180517bffffffffffffffffffffffffffffffffffffffffffffffffffffffff8381831617835250505050610d17565b50565b610bdd610d40565b73ffffffffffffffffffffffffffffffffffffffff16610bfb610a2d565b73ffffffffffffffffffffffffffffffffffffffff1614610c51576040517f08c379a0000000000000000000000000000000000000000000000000000000008152600401610c48906114dd565b60405180910390fd5b565b60008060009054906101000a900473ffffffffffffffffffffffffffffffffffffffff169050816000806101000a81548173ffffffffffffffffffffffffffffffffffffffff021916908373ffffffffffffffffffffffffffffffffffffffff1602179055508173ffffffffffffffffffffffffffffffffffffffff168173ffffffffffffffffffffffffffffffffffffffff167f8be0079c531659141344cd1fd0a4f28419497f9722a3daafe3b4186f6b6457e060405160405180910390a35050565b60008151905060006a636f6e736f6c652e6c6f679050602083016000808483855afa5050505050565b600033905090565b6000819050919050565b610d5b81610d48565b82525050565b6000602082019050610d766000830184610d52565b92915050565b600073ffffffffffffffffffffffffffffffffffffffff82169050919050565b6000610da782610d7c565b9050919050565b610db781610d9c565b82525050565b6000602082019050610dd26000830184610dae565b92915050565b600080fd5b610de681610d9c565b8114610df157600080fd5b50565b600081359050610e0381610ddd565b92915050565b600060208284031215610e1f57610e1e610dd8565b5b6000610e2d84828501610df4565b91505092915050565b60008115159050919050565b610e4b81610e36565b82525050565b6000602082019050610e666000830184610e42565b92915050565b6000819050919050565b6000610e91610e8c610e8784610d7c565b610e6c565b610d7c565b9050919050565b6000610ea382610e76565b9050919050565b6000610eb582610e98565b9050919050565b610ec581610eaa565b82525050565b6000602082019050610ee06000830184610ebc565b92915050565b600082825260208201905092915050565b7f416d6f756e74206973206c657373207468616e206d696e696d756d207075726360008201527f6861736500000000000000000000000000000000000000000000000000000000602082015250565b6000610f53602483610ee6565b9150610f5e82610ef7565b604082019050919050565b60006020820190508181036000830152610f8281610f46565b9050919050565b7f416d6f756e74206973206d6f7265207468616e206d6178696d756d207075726360008201527f6861736500000000000000000000000000000000000000000000000000000000602082015250565b6000610fe5602483610ee6565b9150610ff082610f89565b604082019050919050565b6000602082019050818103600083015261101481610fd8565b9050919050565b7f4e487b7100000000000000000000000000000000000000000000000000000000600052601160045260246000fd5b600061105582610d48565b915061106083610d48565b92508282019050808211156110785761107761101b565b5b92915050565b7f4861726463617020726561636865640000000000000000000000000000000000600082015250565b60006110b4600f83610ee6565b91506110bf8261107e565b602082019050919050565b600060208201905081810360008301526110e3816110a7565b9050919050565b7f536f667463617020726561636865640000000000000000000000000000000000600082015250565b6000611120600f83610ee6565b915061112b826110ea565b602082019050919050565b6000602082019050818103600083015261114f81611113565b9050919050565b7f4e6f206465706f7369747320746f207769746864726177000000000000000000600082015250565b600061118c601783610ee6565b915061119782611156565b602082019050919050565b600060208201905081810360008301526111bb8161117f565b9050919050565b7f536f6674636170206e6f74207265616368656400000000000000000000000000600082015250565b60006111f8601383610ee6565b9150611203826111c2565b602082019050919050565b60006020820190508181036000830152611227816111eb565b9050919050565b7f4e6f206465706f7369747320746f20636c61696d000000000000000000000000600082015250565b6000611264601483610ee6565b915061126f8261122e565b602082019050919050565b6000602082019050818103600083015261129381611257565b9050919050565b60006112a582610d48565b91506112b083610d48565b92508282026112be81610d48565b915082820484148315176112d5576112d461101b565b5b5092915050565b60006040820190506112f16000830185610dae565b6112fe6020830184610d52565b9392505050565b61130e81610e36565b811461131957600080fd5b50565b60008151905061132b81611305565b92915050565b60006020828403121561134757611346610dd8565b5b60006113558482850161131c565b91505092915050565b7f4f776e61626c653a206e6577206f776e657220697320746865207a65726f206160008201527f6464726573730000000000000000000000000000000000000000000000000000602082015250565b60006113ba602683610ee6565b91506113c58261135e565b604082019050919050565b600060208201905081810360008301526113e9816113ad565b9050919050565b600081519050919050565b60005b838110156114195780820151818401526020810190506113fe565b60008484015250505050565b6000601f19601f8301169050919050565b6000611441826113f0565b61144b8185610ee6565b935061145b8185602086016113fb565b61146481611425565b840191505092915050565b600060208201905081810360008301526114898184611436565b905092915050565b7f4f776e61626c653a2063616c6c6572206973206e6f7420746865206f776e6572600082015250565b60006114c7602083610ee6565b91506114d282611491565b602082019050919050565b600060208201905081810360008301526114f6816114ba565b905091905056fea2646970667358221220fd723b789e8aacd9eba89e7f8c0759f3a504d5a2d65bb3e3f7e23f8b4952a07a64736f6c63430008120033",
  "linkReferences": {},
  "deployedLinkReferences": {}
}